:040000008A15002835
:10000800FF00030E83018316E6000A08E5008A0153
:1000180070088312A3007108A2007208A1008B1C4B
:100028001928FD308B058A0100280C191E280D1887
:100038001E2863281508403A031D4F2816089C3AC5
:10004800031D4F281B08403A031D4F281C089C3AE3
:10005800031D4F280715FF30831655058312950099
:1000680083165608F000F101700883129600871471
:10007800FF308316510583129B0083165208F00047
:10008800F101700883129C00FB308C05FE308D0551
:100098008E018F0163280C1D5928FB3087054030DD
:1000A80095009C309600FB308C050D1C6328FD30B4
:1000B800870540309B009C309C00FE308D0523084E
:1000C800F0002208F1002108F200831665088A0072
:0A00D800660E8300FF0E7F0E090084
:1000E200CF30831203138805F0300805F20003179E
:1000F2001208F000F00CF013F00CF013F00CF013F7
:10010200F00CF0130F30F00570087204031388002E
:100112000817BF308805F0300805F1000F300317CB
:100122001205F00070087104031388000817BF302D
:1001320088050830FC00C930FD00FD0B9E28FC0B31
:080142009E28000000000800E7
:0E014A00831603134B088A004A08820008003F
:10015800DF308312031388050816F0300805F20013
:1001680003171208F000F00CF013F00CF013F00C69
:10017800F013F00CF0130F30F0057008720403133D
:1001880088000817BF308805F0300805F1000F30E7
:1001980003171205F000700871040313880008178C
:1001A800BF3088050830FC00C930FD00FD0BDA2897
:0A01B800FC0BDA280000000008002C
:1001C200A5208A110A128000840ACA0A0319CB0ADE
:0801D200F003031DE128080001
:1001DA008316031388010330831288000817BF307F
:1001EA0088050D30FC00FB30FD00FD0BFA28FC0BE6
:1001FA00FA28000000000817BF3088054930FD00C2
:10020A00FD0B0529023088000817BF3088051A300F
:10021A00FC00F830FD00FD0B1029FC0B1029000032
:02022A000800CA
:10022C0083120313FB01FA01F901F801A001730D0C
:10023C00F80D7408F8027508031C750FF90276089E
:10024C00031C760FFA027708031C770FFB020001E0
:10025C00031C0130A002F30D0730FC00730DF80DE8
:10026C00F90DFA0DFB0DA00D7408731C4F29F80243
:10027C007508031C750FF9027608031C760FFA0239
:10028C007708031C770FFB020001031C0130A0024E
:10029C006029F80775080318750FF9077608031815
:1002AC00760FFA0777080318770FFB07000103187E
:1002BC000130A007F30DFC0B3429720DF80DF90D6C
:1002CC00FA0DFB0DA00D7408731C7E29F80275083D
:1002DC00031C750FF9027608031C760FFA027708D7
:1002EC00031C770FFB020001031C0130A0028F29B5
:1002FC00F80775080318750FF90776080318760FB9
:10030C00FA0777080318770FFB0700010318013071
:10031C00A007F20D0730FC00720DF80DF90DFA0D67
:10032C00FB0DA00D7408721CAD29F8027508031C96
:10033C00750FF9027608031C760FFA027708031C76
:10034C00770FFB020001031C0130A002BE29F80745
:10035C0075080318750FF90776080318760FFA0756
:10036C0077080318770FFB07000103180130A0076B
:10037C00F20DFC0B9229710DF80DF90DFA0DFB0D18
:10038C00A00D7408721CDC29F8027508031C750F8B
:10039C00F9027608031C760FFA027708031C770F14
:1003AC00FB020001031C0130A002ED29F8077508BF
:1003BC000318750FF90776080318760FFA077708F4
:1003CC000318770FFB07000103180130A007F10D8C
:1003DC000730FC00710DF80DF90DFA0DFB0DA00D99
:1003EC007408711C0B2AF8027508031C750FF902AE
:1003FC007608031C760FFA027708031C770FFB02B2
:10040C000001031C0130A0021C2AF8077508031810
:10041C00750FF90776080318760FFA077708031893
:10042C00770FFB07000103180130A007F10DFC0B3F
:10043C00F029700DF80DF90DFA0DFB0DA00D7408D7
:10044C00711C3A2AF8027508031C750FF90276081C
:10045C00031C760FFA027708031C770FFB020001CE
:10046C00031C0130A0024B2AF80775080318750FFE
:10047C00F90776080318760FFA0777080318770F31
:10048C00FB07000103180130A007F00D0730FC003A
:10049C00700DF80DF90DFA0DFB0DA00D7408701C04
:1004AC00692AF8027508031C750FF9027608031CFB
:1004BC00760FFA027708031C770FFB020001031C6E
:1004CC000130A0027A2AF80775080318750FF9078E
:1004DC0076080318760FFA0777080318770FFB07CF
:1004EC00000103180130A007F00DFC0B4E2A701808
:1004FC008D2A7408F80775080318750FF907760824
:10050C000318760FFA0777080318770FFB07080014
:10051C00831603130C150D14F93087050A3083125A
:10052C0097040A309D0410144030950040309B0015
:0E053C009C3096009C309C008E018F010800C0
:10054A008312031790011008831603136F078400A0
:10055A000008003A0319C02A8312031710088316E9
:10056A0003136F0784000008831203179200AC205C
:08057A000317900AA82A0800EB
:10058200C130831603139F04413083129F04080075
:10059200831203132230FC00F801F901FA01FB0176
:1005A200FC030319FF2A0310FB0CFA0CF90CF80CDC
:1005B200F30CF20CF10CF00C031CD12AFC0303190E
:1005C200F12A7408F80775080318750FF9077608F9
:1005D2000318760FFA0777080318770FFB07D52A57
:1005E2007408F80775080318750FF90776080318D9
:0E05F200760FFA0777080318770FFB0708004B
:100600008030831203171104920071200317100821
:060610009200AC2008007E
:1006160083120313FB01FA01F9018030F800F10C93
:10062600F00C031C1F2B7408F90775080318750FC7
:10063600FA070318FB0A0310F01F272B7408FA07A2
:1006460075080318750FFB07FB0CFA0CF90CF80C70
:10065600031C122B7B08F3007A08F2007908F100DC
:060666007808F000080016
:10066C00133083120313FD00FD0B3A2B0000000026
:10067C001F151F1D422B3F2B1E08F100F001831686
:0A068C001E08F0040030F10408001D
:1006960083120313F801F9011030FC00710DF80DF7
:1006A600F90D7408F8027508031C750FF902031892
:1006B600632B7408F80775080318750FF9070310FC
:0A06C600F00DF10DFC0B512B0800A4
:1007B40024308400483083120313F0006830831619
:1007C400CA000330CB00E120A03084002A30831219
:1007D400F000B0308316CA000330CB00E1200800DB
:101000008A11DA238A15DF30831603138100D0306A
:101010008B008A11ED208A152830031792008A115F
:1010200071208A150430031792008A1171208A15E5
:101030000130031792008A1171208A1506300317B8
:1010400092008A1171208A150230031792008A11CA
:1010500071208A150C30031792008A1171208A15AD
:101060008A11C1228A158A118E228A15B8308316F8
:10107000D5000B30D600B830D1000B30D2001F3075
:10108000FB007130FC001E30FD00FD0B4528FC0B01
:101090004528FB0B452800000130831203179200FE
:1010A0008A1171208A150230031792008A1171206B
:1010B0008A155C308316EF008A11A5228A15C0308C
:1010C0008312031792008A1171208A15C03083168B
:1010D000EF008A11A5228A1583120313861B71283B
:1010E0006C280130031792008A1171208A15023092
:1010F000031792008A1171208A15B1308316EF0010
:101100008A11A5228A15C0308312031792008A1112
:1011100071208A15A0308316EF008A11A5228A1546
:10112000043083120313FB000C30FC003330FD004D
:10113000FD0B9828FC0B9828FB0B9828000000005A
:10114000861F762A0130031792008A1171208A15B2
:101150000230031792008A1171208A1533308316EA
:10116000EF008A11A5228A15C0308312031792005E
:101170008A1171208A1524308316EF008A11A52266
:101180008A15C730831203139F058A1136238A15E7
:1011900070088312EC007108ED00C7309F059F15A1
:1011A0008A1136238A157008CC007108CD00C7302B
:1011B00083129F051F168A1136238A157008CE00E8
:1011C0007108CF00C73083129F059F168A113623FE
:1011D0008A1570088312EE007108EF00C7309F0572
:1011E00028309F048A1136238A157008E10071089F
:1011F000E200C73083129F0530309F048A113623E6
:101200008A157008E3007108E4004D0883126D022E
:10121000031D0E2983164C0883126C0203181D2926
:10122000133083165602031D172988305502031800
:101230001D290A30D5070318D60A83126D088316B4
:101240004D02031D272983126C0883164C020318D4
:1012500035295608043C031D2F295508B03C0318B6
:1012600035290A30D502031CD60383126F08831672
:101270004F02031D3F2983126E0883164E02031886
:101280004D2913305202031D47298830510203189B
:101290004D290A30D1070318D20A4F0883126F0272
:1012A000031D562983164E0883126E020318652902
:1012B00083165208043C031D5F295108B03C0318F3
:1012C00065290A30D102031CD2036330FD00831666
:1012D000FD0B6729000000006108F0006208F100C2
:1012E000F201F301B030F4000430F500F601F7012B
:1012F0008A11C9228A15FF30F4000330F500F60187
:10130000F7018A1116218A1570088316EB007108FF
:10131000EC007208ED007308EE006B08E1006C0849
:10132000E2006308F0006408F100F201F3016430A8
:10133000F400F501F601F7018A11C9228A15FF3080
:10134000F4000330F500F601F7018A1116218A1521
:1013500070088316E7007108E8007208E900730856
:10136000EA006708E3006808E4000A30F40000308F
:10137000F5006B08F0006C08F1008A114B238A1508
:1013800083166708F4006808F5008A110B238A1594
:1013900070088316D3007108D400D00105305002C4
:1013A0000318262A5008DC3EE7000A30F40000301B
:1013B000F5005308F0005408F1008A114B238A15F8
:1013C0007808F0007908F1003030F00783166708DC
:1013D0008400700880000A30F4000030F5005308E3
:1013E000F0005408F1008A114B238A157008831607
:1013F000D3007108D4005008D73EE7000A30F4004B
:101400000030F5006108F0006208F1008A114B23FA
:101410008A157808F0007908F1003030F00783165B
:1014200067088400700880000A30F4000030F5007E
:101430006108F0006208F1008A114B238A157008D8
:101440008316E1007108E200D00ACE2960088312F9
:1014500003179000063091008A1100238A15831625
:101460005F08831203179000073091008A11002350
:101470008A1583165E0883120317900009309100C5
:101480008A1100238A1583165D08831203179000C2
:101490000A3091008A1100238A1583165A08831294
:1014A00003179000483091008A1100238A15831693
:1014B0005908831203179000493091008A110023C4
:1014C0008A15831658088312031790004B30910039
:1014D0008A1100238A158316570883120317900078
:1014E0004C3091008A1100238A15C128061F062C52
:1014F0000130031792008A1171208A1502300317F8
:1015000092008A1171208A1540308316EF008A11EB
:10151000A5228A15C0308312031792008A11712008
:101520008A154D308316EF008A11A5228A15831281
:101530000313061EA82A133083165202031DA22A83
:10154000883051020318A82A0A30D1070318D20A9A
:101550008312861DB82A133083165602031DB22A41
:10156000883055020318B82A0A30D5070318D60A5E
:101570008312061DC82A83165208043C031DC22A82
:101580005108B03C0318C82A0A30D102031CD20308
:101590008312861CD82A83165608043C031DD22ABF
:1015A0005508B03C0318D82A0A30D502031CD603CC
:1015B0000230FC004B30FD00FD0BDC2AFC0BDC2A6A
:1015C000C73083129F0528309F048A1136238A155D
:1015D0007008E1007108E200C73083129F053030C7
:1015E0009F048A1136238A157008E7007108E80005
:1015F0006708E3006808E4006108F0006208F10091
:10160000F201F301B030F4000430F500F601F70107
:101610008A11C9228A15FF30F4000330F500F60163
:10162000F7018A1116218A1570088316EB007108DC
:10163000EC007208ED007308EE006B08E1006C0826
:10164000E2006708F0006808F100F201F30164307D
:10165000F400F501F601F7018A11C9228A15FF305D
:10166000F4000330F500F601F7018A1116218A15FE
:1016700070088316E7007108E8007208E900730833
:10168000EA006708E3006808E4000A30F40000306C
:10169000F5006B08F0006C08F1008A114B238A15E5
:1016A00083166708F4006808F5008A110B238A1571
:1016B00070088316D3007108D400D00105305002A1
:1016C0000318B62B5008DC3EE7000A30F400003067
:1016D000F5005308F0005408F1008A114B238A15D5
:1016E0007808F0007908F1003030F00783166708B9
:1016F0008400700880000A30F4000030F5005308C0
:10170000F0005408F1008A114B238A1570088316E3
:10171000D3007108D4005008D73EE7000A30F40027
:101720000030F5006108F0006208F1008A114B23D7
:101730008A157808F0007908F1003030F007831638
:1017400067088400700880000A30F4000030F5005B
:101750006108F0006208F1008A114B238A157008B5
:101760008316E1007108E200D00A5E2B6008831244
:1017700003179000063091008A1100238A15831602
:101780005F08831203179000073091008A1100232D
:101790008A1583165E0883120317900009309100A2
:1017A0008A1100238A1583165D088312031790009F
:1017B0000A3091008A1100238A1583165A08831271
:1017C00003179000483091008A1100238A15831670
:1017D0005908831203179000493091008A110023A1
:1017E0008A15831658088312031790004B30910016
:1017F0008A1100238A158316570883120317900055
:101800004C3091008A1100238A15972AA028072CB2
:1006D00056344F344C3454344134473445343D342B
:0E06E000203420342E3420342034563400349C
:1006EE0050344F345734453452343D342034203452
:0A06FE002E34203420345734003429
:1007080050344F345734453452343D342034203437
:0A0718002E3420342034573400340E
:1007220056344F344C3454344134473445343D34D8
:0E073200203420342E34203420345634003449
:100740004F345034453452344134543449344F34A6
:100750004E3420344D344F34443445343A3400342C
:10076000423429344D3441344E34553441344C34C0
:10077000203443344F344E34543452344F344C3498
:02078000003443
:1007820041342934533455344E34203454345234A1
:0E079200413443344B3449344E344734003440
:1007A0004134293450344F34523443344534453481
:0407B0004434003499
:02400E004A2F37
:00000001FF
